{
  "_format": "hh-sol-artifact-1",
  "contractName": "AVAXDuelEscrow",
  "sourceName": "contracts/AVAXDuelEscrow.sol",
  "abi": [
    {
      "inputs": [],
      "stateMutability": "nonpayable",
      "type": "constructor"
    },
    {
      "inputs": [
        {
          "internalType": "address",
          "name": "owner",
          "type": "address"
        }
      ],
      "name": "OwnableInvalidOwner",
      "type": "error"
    },
    {
      "inputs": [
        {
          "internalType": "address",
          "name": "account",
          "type": "address"
        }
      ],
      "name": "OwnableUnauthorizedAccount",
      "type": "error"
    },
    {
      "inputs": [],
      "name": "ReentrancyGuardReentrantCall",
      "type": "error"
    },
    {
      "anonymous": false,
      "inputs": [
        {
          "indexed": true,
          "internalType": "uint256",
          "name": "duelId",
          "type": "uint256"
        },
        {
          "indexed": true,
          "internalType": "address",
          "name": "playerA",
          "type": "address"
        },
        {
          "indexed": false,
          "internalType": "uint256",
          "name": "stakeAmount",
          "type": "uint256"
        }
      ],
      "name": "DuelCreated",
      "type": "event"
    },
    {
      "anonymous": false,
      "inputs": [
        {
          "indexed": true,
          "internalType": "uint256",
          "name": "duelId",
          "type": "uint256"
        },
        {
          "indexed": true,
          "internalType": "address",
          "name": "winner",
          "type": "address"
        },
        {
          "indexed": false,
          "internalType": "uint256",
          "name": "payout",
          "type": "uint256"
        }
      ],
      "name": "DuelFinalized",
      "type": "event"
    },
    {
      "anonymous": false,
      "inputs": [
        {
          "indexed": true,
          "internalType": "uint256",
          "name": "duelId",
          "type": "uint256"
        },
        {
          "indexed": true,
          "internalType": "address",
          "name": "playerB",
          "type": "address"
        }
      ],
      "name": "DuelJoined",
      "type": "event"
    },
    {
      "anonymous": false,
      "inputs": [
        {
          "indexed": true,
          "internalType": "address",
          "name": "previousOwner",
          "type": "address"
        },
        {
          "indexed": true,
          "internalType": "address",
          "name": "newOwner",
          "type": "address"
        }
      ],
      "name": "OwnershipTransferred",
      "type": "event"
    },
    {
      "inputs": [],
      "name": "MINIMUM_STAKE",
      "outputs": [
        {
          "internalType": "uint256",
          "name": "",
          "type": "uint256"
        }
      ],
      "stateMutability": "view",
      "type": "function"
    },
    {
      "inputs": [],
      "name": "createDuel",
      "outputs": [],
      "stateMutability": "payable",
      "type": "function"
    },
    {
      "inputs": [
        {
          "internalType": "uint256",
          "name": "",
          "type": "uint256"
        }
      ],
      "name": "duels",
      "outputs": [
        {
          "internalType": "address",
          "name": "playerA",
          "type": "address"
        },
        {
          "internalType": "address",
          "name": "playerB",
          "type": "address"
        },
        {
          "internalType": "uint256",
          "name": "stakeAmount",
          "type": "uint256"
        },
        {
          "internalType": "bool",
          "name": "isActive",
          "type": "bool"
        },
        {
          "internalType": "bool",
          "name": "isCompleted",
          "type": "bool"
        },
        {
          "internalType": "uint256",
          "name": "startTime",
          "type": "uint256"
        }
      ],
      "stateMutability": "view",
      "type": "function"
    },
    {
      "inputs": [],
      "name": "emergencyWithdraw",
      "outputs": [],
      "stateMutability": "nonpayable",
      "type": "function"
    },
    {
      "inputs": [
        {
          "internalType": "uint256",
          "name": "duelId",
          "type": "uint256"
        },
        {
          "internalType": "address",
          "name": "winner",
          "type": "address"
        }
      ],
      "name": "finalizeDuel",
      "outputs": [],
      "stateMutability": "nonpayable",
      "type": "function"
    },
    {
      "inputs": [
        {
          "internalType": "uint256",
          "name": "duelId",
          "type": "uint256"
        }
      ],
      "name": "getDuel",
      "outputs": [
        {
          "components": [
            {
              "internalType": "address",
              "name": "playerA",
              "type": "address"
            },
            {
              "internalType": "address",
              "name": "playerB",
              "type": "address"
            },
            {
              "internalType": "uint256",
              "name": "stakeAmount",
              "type": "uint256"
            },
            {
              "internalType": "bool",
              "name": "isActive",
              "type": "bool"
            },
            {
              "internalType": "bool",
              "name": "isCompleted",
              "type": "bool"
            },
            {
              "internalType": "uint256",
              "name": "startTime",
              "type": "uint256"
            }
          ],
          "internalType": "struct AVAXDuelEscrow.Duel",
          "name": "",
          "type": "tuple"
        }
      ],
      "stateMutability": "view",
      "type": "function"
    },
    {
      "inputs": [],
      "name": "getDuelCount",
      "outputs": [
        {
          "internalType": "uint256",
          "name": "",
          "type": "uint256"
        }
      ],
      "stateMutability": "view",
      "type": "function"
    },
    {
      "inputs": [
        {
          "internalType": "uint256",
          "name": "duelId",
          "type": "uint256"
        }
      ],
      "name": "joinDuel",
      "outputs": [],
      "stateMutability": "payable",
      "type": "function"
    },
    {
      "inputs": [],
      "name": "nextDuelId",
      "outputs": [
        {
          "internalType": "uint256",
          "name": "",
          "type": "uint256"
        }
      ],
      "stateMutability": "view",
      "type": "function"
    },
    {
      "inputs": [],
      "name": "owner",
      "outputs": [
        {
          "internalType": "address",
          "name": "",
          "type": "address"
        }
      ],
      "stateMutability": "view",
      "type": "function"
    },
    {
      "inputs": [],
      "name": "renounceOwnership",
      "outputs": [],
      "stateMutability": "nonpayable",
      "type": "function"
    },
    {
      "inputs": [
        {
          "internalType": "address",
          "name": "newOwner",
          "type": "address"
        }
      ],
      "name": "transferOwnership",
      "outputs": [],
      "stateMutability": "nonpayable",
      "type": "function"
    },
    {
      "stateMutability": "payable",
      "type": "receive"
    }
  ],
  "bytecode": "0x6080604052600160035534801561001557600080fd5b50338061003c57604051631e4fbdf760e01b81526000600482015260240160405180910390fd5b6100458161004f565b506001805561009f565b600080546001600160a01b038381166001600160a01b0319831681178455604051919092169283917f8be0079c531659141344cd1fd0a4f28419497f9722a3daafe3b4186f6b6457e09190a35050565b610b9f806100ae6000396000f3fe6080604052600436106100ab5760003560e01c8063a0fd9a8c11610064578063a0fd9a8c146102ed578063c3e184471461030d578063c78c5ae214610322578063db2e21bc1461032a578063e8097b7e1461033f578063f2fde38b1461035257600080fd5b806308dbbb03146100b7578063549ec614146100e5578063565e614f146100fb578063715018a61461020e578063859a62d0146102255780638da5cb5b146102c557600080fd5b366100b257005b600080fd5b3480156100c357600080fd5b506100d2662386f26fc1000081565b6040519081526020015b60405180910390f35b3480156100f157600080fd5b506100d260035481565b34801561010757600080fd5b506101b5610116366004610a87565b6040805160c081018252600080825260208201819052918101829052606081018290526080810182905260a081019190915250600090815260026020818152604092839020835160c08101855281546001600160a01b039081168252600183015416928101929092529182015492810192909252600381015460ff8082161515606085015261010090910416151560808301526004015460a082015290565b6040516100dc919081516001600160a01b039081168252602080840151909116908201526040808301519082015260608083015115159082015260808083015115159082015260a0918201519181019190915260c00190565b34801561021a57600080fd5b50610223610372565b005b34801561023157600080fd5b50610289610240366004610a87565b6002602081905260009182526040909120805460018201549282015460038301546004909301546001600160a01b039283169490921692909160ff808316926101009004169086565b604080516001600160a01b03978816815296909516602087015293850192909252151560608401521515608083015260a082015260c0016100dc565b3480156102d157600080fd5b506000546040516001600160a01b0390911681526020016100dc565b3480156102f957600080fd5b50610223610308366004610abc565b610386565b34801561031957600080fd5b506100d2610602565b610223610618565b34801561033657600080fd5b5061022361076f565b61022361034d366004610a87565b610811565b34801561035e57600080fd5b5061022361036d366004610ae8565b6109a5565b61037a6109e0565b6103846000610a0d565b565b61038e6109e0565b610396610a5d565b6000828152600260205260409020600381015460ff166103ef5760405162461bcd60e51b815260206004820152600f60248201526e4475656c206e6f742061637469766560881b60448201526064015b60405180910390fd5b60018101546001600160a01b031661043b5760405162461bcd60e51b815260206004820152600f60248201526e111d595b081b9bdd081a9bda5b9959608a1b60448201526064016103e6565b6003810154610100900460ff161561048e5760405162461bcd60e51b8152602060048201526016602482015275111d595b08185b1c9958591e4818dbdb5c1b195d195960521b60448201526064016103e6565b80546001600160a01b03838116911614806104b8575060018101546001600160a01b038381169116145b6104f55760405162461bcd60e51b815260206004820152600e60248201526d24b73b30b634b2103bb4b73732b960911b60448201526064016103e6565b60038101805461ffff19166101001790556002808201546000916105199190610b20565b90506000836001600160a01b03168260405160006040518083038185875af1925050503d8060008114610568576040519150601f19603f3d011682016040523d82523d6000602084013e61056d565b606091505b50509050806105ae5760405162461bcd60e51b815260206004820152600d60248201526c14185e5bdd5d0819985a5b1959609a1b60448201526064016103e6565b836001600160a01b0316857ff6da082615101369cd3719304cfc144daf3dd80a082f20ee252c887eca959c1f846040516105ea91815260200190565b60405180910390a35050506105fe60018055565b5050565b600060016003546106139190610b3d565b905090565b610620610a5d565b662386f26fc100003410156106675760405162461bcd60e51b815260206004820152600d60248201526c5374616b6520746f6f206c6f7760981b60448201526064016103e6565b600380546000918261067883610b50565b909155506040805160c081018252338082526000602080840182815234858701818152600160608801818152608089018781524260a08b019081528c89526002808952988c90209a518b546001600160a01b039182166001600160a01b0319918216178d559751948c01805495909116949097169390931790955591519588019590955551600387018054935115156101000261ff00199215159290921661ffff1990941693909317179091559151600490940193909355925192835292935083917fd2c008cab3e2faa4367c93db99aca3cd062f88e9459e87d88b19ff8663d3d9ef910160405180910390a35061038460018055565b6107776109e0565b600080546040516001600160a01b039091169047908381818185875af1925050503d80600081146107c4576040519150601f19603f3d011682016040523d82523d6000602084013e6107c9565b606091505b505090508061080e5760405162461bcd60e51b815260206004820152601160248201527015da5d1a191c985dd85b0819985a5b1959607a1b60448201526064016103e6565b50565b610819610a5d565b6000818152600260205260409020600381015460ff1661086d5760405162461bcd60e51b815260206004820152600f60248201526e4475656c206e6f742061637469766560881b60448201526064016103e6565b60018101546001600160a01b0316156108be5760405162461bcd60e51b8152602060048201526013602482015272111d595b08185b1c9958591e481a9bda5b9959606a1b60448201526064016103e6565b80546001600160a01b0316330361090e5760405162461bcd60e51b815260206004820152601460248201527310d85b9b9bdd081a9bda5b881bdddb88191d595b60621b60448201526064016103e6565b806002015434146109595760405162461bcd60e51b81526020600482015260156024820152740a6e8c2d6ca40c2dadeeadce840dad2e6dac2e8c6d605b1b60448201526064016103e6565b6001810180546001600160a01b0319163390811790915560405183907f2be0d3826f37a8de3c1b301652c7dab4429fc3dfe5685e6ce0947666cb32401d90600090a35061080e60018055565b6109ad6109e0565b6001600160a01b0381166109d757604051631e4fbdf760e01b8152600060048201526024016103e6565b61080e81610a0d565b6000546001600160a01b031633146103845760405163118cdaa760e01b81523360048201526024016103e6565b600080546001600160a01b038381166001600160a01b0319831681178455604051919092169283917f8be0079c531659141344cd1fd0a4f28419497f9722a3daafe3b4186f6b6457e09190a35050565b600260015403610a8057604051633ee5aeb560e01b815260040160405180910390fd5b6002600155565b600060208284031215610a9957600080fd5b5035919050565b80356001600160a01b0381168114610ab757600080fd5b919050565b60008060408385031215610acf57600080fd5b82359150610adf60208401610aa0565b90509250929050565b600060208284031215610afa57600080fd5b610b0382610aa0565b9392505050565b634e487b7160e01b600052601160045260246000fd5b8082028115828204841417610b3757610b37610b0a565b92915050565b81810381811115610b3757610b37610b0a565b600060018201610b6257610b62610b0a565b506001019056fea26469706673582212201d0bc0c1eeb44adb7f88f1a98eadfa546c24072409882c5d0ab08cf1b986280964736f6c63430008140033",
  "linkReferences": {},
  "deployedLinkReferences": {}
}