{
  "_format": "hh-sol-artifact-1",
  "contractName": "DuelEscrow",
  "sourceName": "contracts/DuelEscrow.sol",
  "abi": [
    {
      "inputs": [
        {
          "internalType": "address",
          "name": "_stakeToken",
          "type": "address"
        }
      ],
      "stateMutability": "nonpayable",
      "type": "constructor"
    },
    {
      "inputs": [
        {
          "internalType": "address",
          "name": "owner",
          "type": "address"
        }
      ],
      "name": "OwnableInvalidOwner",
      "type": "error"
    },
    {
      "inputs": [
        {
          "internalType": "address",
          "name": "account",
          "type": "address"
        }
      ],
      "name": "OwnableUnauthorizedAccount",
      "type": "error"
    },
    {
      "inputs": [],
      "name": "ReentrancyGuardReentrantCall",
      "type": "error"
    },
    {
      "anonymous": false,
      "inputs": [
        {
          "indexed": true,
          "internalType": "address",
          "name": "player",
          "type": "address"
        },
        {
          "indexed": false,
          "internalType": "uint256",
          "name": "newAmount",
          "type": "uint256"
        }
      ],
      "name": "ApprovalUpdated",
      "type": "event"
    },
    {
      "anonymous": false,
      "inputs": [
        {
          "indexed": true,
          "internalType": "uint256",
          "name": "duelId",
          "type": "uint256"
        },
        {
          "indexed": true,
          "internalType": "address",
          "name": "playerA",
          "type": "address"
        },
        {
          "indexed": false,
          "internalType": "uint256",
          "name": "stakeAmount",
          "type": "uint256"
        }
      ],
      "name": "DuelCreated",
      "type": "event"
    },
    {
      "anonymous": false,
      "inputs": [
        {
          "indexed": true,
          "internalType": "uint256",
          "name": "duelId",
          "type": "uint256"
        },
        {
          "indexed": true,
          "internalType": "address",
          "name": "winner",
          "type": "address"
        },
        {
          "indexed": false,
          "internalType": "uint256",
          "name": "payout",
          "type": "uint256"
        }
      ],
      "name": "DuelFinalized",
      "type": "event"
    },
    {
      "anonymous": false,
      "inputs": [
        {
          "indexed": true,
          "internalType": "uint256",
          "name": "duelId",
          "type": "uint256"
        },
        {
          "indexed": true,
          "internalType": "address",
          "name": "playerB",
          "type": "address"
        }
      ],
      "name": "DuelJoined",
      "type": "event"
    },
    {
      "anonymous": false,
      "inputs": [
        {
          "indexed": true,
          "internalType": "address",
          "name": "previousOwner",
          "type": "address"
        },
        {
          "indexed": true,
          "internalType": "address",
          "name": "newOwner",
          "type": "address"
        }
      ],
      "name": "OwnershipTransferred",
      "type": "event"
    },
    {
      "inputs": [],
      "name": "MINIMUM_STAKE",
      "outputs": [
        {
          "internalType": "uint256",
          "name": "",
          "type": "uint256"
        }
      ],
      "stateMutability": "view",
      "type": "function"
    },
    {
      "inputs": [
        {
          "internalType": "uint256",
          "name": "amount",
          "type": "uint256"
        }
      ],
      "name": "approveStake",
      "outputs": [],
      "stateMutability": "nonpayable",
      "type": "function"
    },
    {
      "inputs": [
        {
          "internalType": "uint256",
          "name": "stakeAmount",
          "type": "uint256"
        }
      ],
      "name": "createDuel",
      "outputs": [],
      "stateMutability": "nonpayable",
      "type": "function"
    },
    {
      "inputs": [
        {
          "internalType": "uint256",
          "name": "",
          "type": "uint256"
        }
      ],
      "name": "duels",
      "outputs": [
        {
          "internalType": "address",
          "name": "playerA",
          "type": "address"
        },
        {
          "internalType": "address",
          "name": "playerB",
          "type": "address"
        },
        {
          "internalType": "uint256",
          "name": "stakeAmount",
          "type": "uint256"
        },
        {
          "internalType": "bool",
          "name": "isActive",
          "type": "bool"
        },
        {
          "internalType": "bool",
          "name": "isCompleted",
          "type": "bool"
        },
        {
          "internalType": "uint256",
          "name": "startTime",
          "type": "uint256"
        }
      ],
      "stateMutability": "view",
      "type": "function"
    },
    {
      "inputs": [
        {
          "internalType": "address",
          "name": "token",
          "type": "address"
        },
        {
          "internalType": "uint256",
          "name": "amount",
          "type": "uint256"
        }
      ],
      "name": "emergencyWithdraw",
      "outputs": [],
      "stateMutability": "nonpayable",
      "type": "function"
    },
    {
      "inputs": [
        {
          "internalType": "uint256",
          "name": "duelId",
          "type": "uint256"
        },
        {
          "internalType": "address",
          "name": "winner",
          "type": "address"
        }
      ],
      "name": "finalizeDuel",
      "outputs": [],
      "stateMutability": "nonpayable",
      "type": "function"
    },
    {
      "inputs": [
        {
          "internalType": "uint256",
          "name": "duelId",
          "type": "uint256"
        }
      ],
      "name": "getDuel",
      "outputs": [
        {
          "components": [
            {
              "internalType": "address",
              "name": "playerA",
              "type": "address"
            },
            {
              "internalType": "address",
              "name": "playerB",
              "type": "address"
            },
            {
              "internalType": "uint256",
              "name": "stakeAmount",
              "type": "uint256"
            },
            {
              "internalType": "bool",
              "name": "isActive",
              "type": "bool"
            },
            {
              "internalType": "bool",
              "name": "isCompleted",
              "type": "bool"
            },
            {
              "internalType": "uint256",
              "name": "startTime",
              "type": "uint256"
            }
          ],
          "internalType": "struct DuelEscrow.Duel",
          "name": "",
          "type": "tuple"
        }
      ],
      "stateMutability": "view",
      "type": "function"
    },
    {
      "inputs": [],
      "name": "getDuelCount",
      "outputs": [
        {
          "internalType": "uint256",
          "name": "",
          "type": "uint256"
        }
      ],
      "stateMutability": "view",
      "type": "function"
    },
    {
      "inputs": [
        {
          "internalType": "uint256",
          "name": "duelId",
          "type": "uint256"
        }
      ],
      "name": "joinDuel",
      "outputs": [],
      "stateMutability": "nonpayable",
      "type": "function"
    },
    {
      "inputs": [],
      "name": "nextDuelId",
      "outputs": [
        {
          "internalType": "uint256",
          "name": "",
          "type": "uint256"
        }
      ],
      "stateMutability": "view",
      "type": "function"
    },
    {
      "inputs": [],
      "name": "owner",
      "outputs": [
        {
          "internalType": "address",
          "name": "",
          "type": "address"
        }
      ],
      "stateMutability": "view",
      "type": "function"
    },
    {
      "inputs": [
        {
          "internalType": "address",
          "name": "",
          "type": "address"
        }
      ],
      "name": "playerApprovals",
      "outputs": [
        {
          "internalType": "uint256",
          "name": "",
          "type": "uint256"
        }
      ],
      "stateMutability": "view",
      "type": "function"
    },
    {
      "inputs": [],
      "name": "renounceOwnership",
      "outputs": [],
      "stateMutability": "nonpayable",
      "type": "function"
    },
    {
      "inputs": [],
      "name": "stakeToken",
      "outputs": [
        {
          "internalType": "contract IERC20",
          "name": "",
          "type": "address"
        }
      ],
      "stateMutability": "view",
      "type": "function"
    },
    {
      "inputs": [
        {
          "internalType": "address",
          "name": "newOwner",
          "type": "address"
        }
      ],
      "name": "transferOwnership",
      "outputs": [],
      "stateMutability": "nonpayable",
      "type": "function"
    }
  ],
  "bytecode": "0x60a0604052600160045534801561001557600080fd5b50604051611216380380611216833981016040819052610034916100c9565b338061005a57604051631e4fbdf760e01b81526000600482015260240160405180910390fd5b61006381610079565b50600180556001600160a01b03166080526100f9565b600080546001600160a01b038381166001600160a01b0319831681178455604051919092169283917f8be0079c531659141344cd1fd0a4f28419497f9722a3daafe3b4186f6b6457e09190a35050565b6000602082840312156100db57600080fd5b81516001600160a01b03811681146100f257600080fd5b9392505050565b6080516110d861013e600039600081816101310152818161041201528181610780015281816108df01528181610a7d01528181610c990152610d8f01526110d86000f3fe608060405234801561001057600080fd5b50600436106100f55760003560e01c80638da5cb5b11610097578063c3e1844711610066578063c3e184471461035f578063ca67748114610367578063e8097b7e14610387578063f2fde38b1461039a57600080fd5b80638da5cb5b1461031557806395ccea6714610326578063a0fd9a8c14610339578063bdaf46c01461034c57600080fd5b8063549ec614116100d3578063549ec6141461016b578063565e614f14610174578063715018a61461027a578063859a62d01461028257600080fd5b806308dbbb03146100fa5780631411ed651461011757806351ed6a301461012c575b600080fd5b610104620f424081565b6040519081526020015b60405180910390f35b61012a610125366004610f5b565b6103ad565b005b6101537f000000000000000000000000000000000000000000000000000000000000000081565b6040516001600160a01b03909116815260200161010e565b61010460045481565b610221610182366004610f5b565b6040805160c081018252600080825260208201819052918101829052606081018290526080810182905260a081019190915250600090815260026020818152604092839020835160c08101855281546001600160a01b039081168252600183015416928101929092529182015492810192909252600381015460ff8082161515606085015261010090910416151560808301526004015460a082015290565b60405161010e919081516001600160a01b039081168252602080840151909116908201526040808301519082015260608083015115159082015260808083015115159082015260a0918201519181019190915260c00190565b61012a610514565b6102d9610290366004610f5b565b6002602081905260009182526040909120805460018201549282015460038301546004909301546001600160a01b039283169490921692909160ff808316926101009004169086565b604080516001600160a01b03978816815296909516602087015293850192909252151560608401521515608083015260a082015260c00161010e565b6000546001600160a01b0316610153565b61012a610334366004610f90565b610528565b61012a610347366004610fba565b6105c7565b61012a61035a366004610f5b565b61087d565b610104610b6c565b610104610375366004610fe6565b60036020526000908152604090205481565b61012a610395366004610f5b565b610b82565b61012a6103a8366004610fe6565b610e79565b620f42408110156103f65760405162461bcd60e51b815260206004820152600e60248201526d416d6f756e7420746f6f206c6f7760901b60448201526064015b60405180910390fd5b60405163095ea7b360e01b8152306004820152602481018290527f00000000000000000000000000000000000000000000000000000000000000006001600160a01b03169063095ea7b3906044016020604051808303816000875af1158015610463573d6000803e3d6000fd5b505050506040513d601f19601f820116820180604052508101906104879190611008565b6104c55760405162461bcd60e51b815260206004820152600f60248201526e105c1c1c9bdd985b0819985a5b1959608a1b60448201526064016103ed565b3360008181526003602052604090819020839055517f92bb139d32a500a24971eca3a43636fdf4608e854b533d1d27e468ba90f08660906105099084815260200190565b60405180910390a250565b61051c610eb4565b6105266000610ee1565b565b610530610eb4565b816001600160a01b031663a9059cbb6105516000546001600160a01b031690565b6040516001600160e01b031960e084901b1681526001600160a01b039091166004820152602481018490526044016020604051808303816000875af115801561059e573d6000803e3d6000fd5b505050506040513d601f19601f820116820180604052508101906105c29190611008565b505050565b6105cf610eb4565b6105d7610f31565b6000828152600260205260409020600381015460ff1661062b5760405162461bcd60e51b815260206004820152600f60248201526e4475656c206e6f742061637469766560881b60448201526064016103ed565b60018101546001600160a01b03166106775760405162461bcd60e51b815260206004820152600f60248201526e111d595b081b9bdd081a9bda5b9959608a1b60448201526064016103ed565b6003810154610100900460ff16156106ca5760405162461bcd60e51b8152602060048201526016602482015275111d595b08185b1c9958591e4818dbdb5c1b195d195960521b60448201526064016103ed565b80546001600160a01b03838116911614806106f4575060018101546001600160a01b038381169116145b6107315760405162461bcd60e51b815260206004820152600e60248201526d24b73b30b634b2103bb4b73732b960911b60448201526064016103ed565b60038101805461ffff19166101001790556002808201546000916107559190611040565b60405163a9059cbb60e01b81526001600160a01b0385811660048301526024820183905291925082917f0000000000000000000000000000000000000000000000000000000000000000169063a9059cbb906044016020604051808303816000875af11580156107c9573d6000803e3d6000fd5b505050506040513d601f19601f820116820180604052508101906107ed9190611008565b6108295760405162461bcd60e51b815260206004820152600d60248201526c14185e5bdd5d0819985a5b1959609a1b60448201526064016103ed565b836001600160a01b0316857ff6da082615101369cd3719304cfc144daf3dd80a082f20ee252c887eca959c1f8360405161086591815260200190565b60405180910390a350505061087960018055565b5050565b610885610f31565b620f42408110156108c85760405162461bcd60e51b815260206004820152600d60248201526c5374616b6520746f6f206c6f7760981b60448201526064016103ed565b6040516370a0823160e01b815233600482015281907f00000000000000000000000000000000000000000000000000000000000000006001600160a01b0316906370a0823190602401602060405180830381865afa15801561092e573d6000803e3d6000fd5b505050506040513d601f19601f82011682018060405250810190610952919061105d565b10156109975760405162461bcd60e51b8152602060048201526014602482015273496e73756666696369656e742062616c616e636560601b60448201526064016103ed565b60048054600091826109a883611076565b909155506040805160c0810182523380825260006020808401828152848601898152600160608701818152608088018681524260a08a019081528b8852600296879052968a9020985189546001600160a01b039182166001600160a01b0319918216178b559551938a018054948216949096169390931790945591519387019390935551600386018054925115156101000261ff00199215159290921661ffff1990931692909217179055905160049384015592516323b872dd60e01b815291820152306024820152604481018590529192507f000000000000000000000000000000000000000000000000000000000000000016906323b872dd906064016020604051808303816000875af1158015610ac6573d6000803e3d6000fd5b505050506040513d601f19601f82011682018060405250810190610aea9190611008565b610b285760405162461bcd60e51b815260206004820152600f60248201526e151c985b9cd9995c8819985a5b1959608a1b60448201526064016103ed565b604051828152339082907fd2c008cab3e2faa4367c93db99aca3cd062f88e9459e87d88b19ff8663d3d9ef9060200160405180910390a350610b6960018055565b50565b60006001600454610b7d919061108f565b905090565b610b8a610f31565b6000818152600260205260409020600381015460ff16610bde5760405162461bcd60e51b815260206004820152600f60248201526e4475656c206e6f742061637469766560881b60448201526064016103ed565b60018101546001600160a01b031615610c2f5760405162461bcd60e51b8152602060048201526013602482015272111d595b08185b1c9958591e481a9bda5b9959606a1b60448201526064016103ed565b80546001600160a01b03163303610c7f5760405162461bcd60e51b815260206004820152601460248201527310d85b9b9bdd081a9bda5b881bdddb88191d595b60621b60448201526064016103ed565b60028101546040516370a0823160e01b81523360048201527f00000000000000000000000000000000000000000000000000000000000000006001600160a01b0316906370a0823190602401602060405180830381865afa158015610ce8573d6000803e3d6000fd5b505050506040513d601f19601f82011682018060405250810190610d0c919061105d565b1015610d515760405162461bcd60e51b8152602060048201526014602482015273496e73756666696369656e742062616c616e636560601b60448201526064016103ed565b6001810180546001600160a01b0319163390811790915560028201546040516323b872dd60e01b8152600481019290925230602483015260448201527f00000000000000000000000000000000000000000000000000000000000000006001600160a01b0316906323b872dd906064016020604051808303816000875af1158015610de0573d6000803e3d6000fd5b505050506040513d601f19601f82011682018060405250810190610e049190611008565b610e425760405162461bcd60e51b815260206004820152600f60248201526e151c985b9cd9995c8819985a5b1959608a1b60448201526064016103ed565b604051339083907f2be0d3826f37a8de3c1b301652c7dab4429fc3dfe5685e6ce0947666cb32401d90600090a350610b6960018055565b610e81610eb4565b6001600160a01b038116610eab57604051631e4fbdf760e01b8152600060048201526024016103ed565b610b6981610ee1565b6000546001600160a01b031633146105265760405163118cdaa760e01b81523360048201526024016103ed565b600080546001600160a01b038381166001600160a01b0319831681178455604051919092169283917f8be0079c531659141344cd1fd0a4f28419497f9722a3daafe3b4186f6b6457e09190a35050565b600260015403610f5457604051633ee5aeb560e01b815260040160405180910390fd5b6002600155565b600060208284031215610f6d57600080fd5b5035919050565b80356001600160a01b0381168114610f8b57600080fd5b919050565b60008060408385031215610fa357600080fd5b610fac83610f74565b946020939093013593505050565b60008060408385031215610fcd57600080fd5b82359150610fdd60208401610f74565b90509250929050565b600060208284031215610ff857600080fd5b61100182610f74565b9392505050565b60006020828403121561101a57600080fd5b8151801515811461100157600080fd5b634e487b7160e01b600052601160045260246000fd5b80820281158282048414176110575761105761102a565b92915050565b60006020828403121561106f57600080fd5b5051919050565b6000600182016110885761108861102a565b5060010190565b818103818111156110575761105761102a56fea2646970667358221220a2fd5d4648718bc39b74838c24a9a05df856c9ad7a0367f454a528b33404b15f64736f6c63430008140033",
  "linkReferences": {},
  "deployedLinkReferences": {}
}