{
  "_format": "hh-sol-artifact-1",
  "contractName": "DuelEscrow",
  "sourceName": "contracts/DuelEscrow.sol",
  "abi": [
    {
      "inputs": [
        {
          "internalType": "address",
          "name": "_stakeToken",
          "type": "address"
        }
      ],
      "stateMutability": "nonpayable",
      "type": "constructor"
    },
    {
      "inputs": [
        {
          "internalType": "address",
          "name": "owner",
          "type": "address"
        }
      ],
      "name": "OwnableInvalidOwner",
      "type": "error"
    },
    {
      "inputs": [
        {
          "internalType": "address",
          "name": "account",
          "type": "address"
        }
      ],
      "name": "OwnableUnauthorizedAccount",
      "type": "error"
    },
    {
      "inputs": [],
      "name": "ReentrancyGuardReentrantCall",
      "type": "error"
    },
    {
      "anonymous": false,
      "inputs": [
        {
          "indexed": true,
          "internalType": "address",
          "name": "player",
          "type": "address"
        },
        {
          "indexed": false,
          "internalType": "uint256",
          "name": "newAmount",
          "type": "uint256"
        }
      ],
      "name": "ApprovalUpdated",
      "type": "event"
    },
    {
      "anonymous": false,
      "inputs": [
        {
          "indexed": true,
          "internalType": "uint256",
          "name": "duelId",
          "type": "uint256"
        },
        {
          "indexed": true,
          "internalType": "address",
          "name": "playerA",
          "type": "address"
        },
        {
          "indexed": false,
          "internalType": "uint256",
          "name": "stakeAmount",
          "type": "uint256"
        }
      ],
      "name": "DuelCreated",
      "type": "event"
    },
    {
      "anonymous": false,
      "inputs": [
        {
          "indexed": true,
          "internalType": "uint256",
          "name": "duelId",
          "type": "uint256"
        },
        {
          "indexed": true,
          "internalType": "address",
          "name": "winner",
          "type": "address"
        },
        {
          "indexed": false,
          "internalType": "uint256",
          "name": "payout",
          "type": "uint256"
        }
      ],
      "name": "DuelFinalized",
      "type": "event"
    },
    {
      "anonymous": false,
      "inputs": [
        {
          "indexed": true,
          "internalType": "uint256",
          "name": "duelId",
          "type": "uint256"
        },
        {
          "indexed": true,
          "internalType": "address",
          "name": "playerB",
          "type": "address"
        }
      ],
      "name": "DuelJoined",
      "type": "event"
    },
    {
      "anonymous": false,
      "inputs": [
        {
          "indexed": true,
          "internalType": "address",
          "name": "previousOwner",
          "type": "address"
        },
        {
          "indexed": true,
          "internalType": "address",
          "name": "newOwner",
          "type": "address"
        }
      ],
      "name": "OwnershipTransferred",
      "type": "event"
    },
    {
      "inputs": [],
      "name": "MINIMUM_STAKE",
      "outputs": [
        {
          "internalType": "uint256",
          "name": "",
          "type": "uint256"
        }
      ],
      "stateMutability": "view",
      "type": "function"
    },
    {
      "inputs": [
        {
          "internalType": "uint256",
          "name": "amount",
          "type": "uint256"
        }
      ],
      "name": "approveStake",
      "outputs": [],
      "stateMutability": "nonpayable",
      "type": "function"
    },
    {
      "inputs": [
        {
          "internalType": "uint256",
          "name": "stakeAmount",
          "type": "uint256"
        }
      ],
      "name": "createDuel",
      "outputs": [],
      "stateMutability": "nonpayable",
      "type": "function"
    },
    {
      "inputs": [
        {
          "internalType": "uint256",
          "name": "",
          "type": "uint256"
        }
      ],
      "name": "duels",
      "outputs": [
        {
          "internalType": "address",
          "name": "playerA",
          "type": "address"
        },
        {
          "internalType": "address",
          "name": "playerB",
          "type": "address"
        },
        {
          "internalType": "uint256",
          "name": "stakeAmount",
          "type": "uint256"
        },
        {
          "internalType": "bool",
          "name": "isActive",
          "type": "bool"
        },
        {
          "internalType": "bool",
          "name": "isCompleted",
          "type": "bool"
        }
      ],
      "stateMutability": "view",
      "type": "function"
    },
    {
      "inputs": [
        {
          "internalType": "address",
          "name": "token",
          "type": "address"
        },
        {
          "internalType": "uint256",
          "name": "amount",
          "type": "uint256"
        }
      ],
      "name": "emergencyWithdraw",
      "outputs": [],
      "stateMutability": "nonpayable",
      "type": "function"
    },
    {
      "inputs": [
        {
          "internalType": "uint256",
          "name": "duelId",
          "type": "uint256"
        },
        {
          "internalType": "address",
          "name": "winner",
          "type": "address"
        }
      ],
      "name": "finalizeDuel",
      "outputs": [],
      "stateMutability": "nonpayable",
      "type": "function"
    },
    {
      "inputs": [
        {
          "internalType": "uint256",
          "name": "duelId",
          "type": "uint256"
        }
      ],
      "name": "getDuel",
      "outputs": [
        {
          "components": [
            {
              "internalType": "address",
              "name": "playerA",
              "type": "address"
            },
            {
              "internalType": "address",
              "name": "playerB",
              "type": "address"
            },
            {
              "internalType": "uint256",
              "name": "stakeAmount",
              "type": "uint256"
            },
            {
              "internalType": "bool",
              "name": "isActive",
              "type": "bool"
            },
            {
              "internalType": "bool",
              "name": "isCompleted",
              "type": "bool"
            }
          ],
          "internalType": "struct DuelEscrow.Duel",
          "name": "",
          "type": "tuple"
        }
      ],
      "stateMutability": "view",
      "type": "function"
    },
    {
      "inputs": [],
      "name": "getDuelCount",
      "outputs": [
        {
          "internalType": "uint256",
          "name": "",
          "type": "uint256"
        }
      ],
      "stateMutability": "view",
      "type": "function"
    },
    {
      "inputs": [
        {
          "internalType": "uint256",
          "name": "duelId",
          "type": "uint256"
        }
      ],
      "name": "joinDuel",
      "outputs": [],
      "stateMutability": "nonpayable",
      "type": "function"
    },
    {
      "inputs": [],
      "name": "nextDuelId",
      "outputs": [
        {
          "internalType": "uint256",
          "name": "",
          "type": "uint256"
        }
      ],
      "stateMutability": "view",
      "type": "function"
    },
    {
      "inputs": [],
      "name": "owner",
      "outputs": [
        {
          "internalType": "address",
          "name": "",
          "type": "address"
        }
      ],
      "stateMutability": "view",
      "type": "function"
    },
    {
      "inputs": [
        {
          "internalType": "address",
          "name": "",
          "type": "address"
        }
      ],
      "name": "playerApprovals",
      "outputs": [
        {
          "internalType": "uint256",
          "name": "",
          "type": "uint256"
        }
      ],
      "stateMutability": "view",
      "type": "function"
    },
    {
      "inputs": [],
      "name": "renounceOwnership",
      "outputs": [],
      "stateMutability": "nonpayable",
      "type": "function"
    },
    {
      "inputs": [],
      "name": "stakeToken",
      "outputs": [
        {
          "internalType": "contract IERC20",
          "name": "",
          "type": "address"
        }
      ],
      "stateMutability": "view",
      "type": "function"
    },
    {
      "inputs": [
        {
          "internalType": "address",
          "name": "newOwner",
          "type": "address"
        }
      ],
      "name": "transferOwnership",
      "outputs": [],
      "stateMutability": "nonpayable",
      "type": "function"
    }
  ],
  "bytecode": "0x60a0604052600160045534801561001557600080fd5b506040516111e93803806111e9833981016040819052610034916100c9565b338061005a57604051631e4fbdf760e01b81526000600482015260240160405180910390fd5b61006381610079565b50600180556001600160a01b03166080526100f9565b600080546001600160a01b038381166001600160a01b0319831681178455604051919092169283917f8be0079c531659141344cd1fd0a4f28419497f9722a3daafe3b4186f6b6457e09190a35050565b6000602082840312156100db57600080fd5b81516001600160a01b03811681146100f257600080fd5b9392505050565b6080516110ab61013e60003960008181610131015281816103eb01528181610759015281816108b801528181610a4e01528181610c6c0152610d6201526110ab6000f3fe608060405234801561001057600080fd5b50600436106100f55760003560e01c80638da5cb5b11610097578063c3e1844711610066578063c3e1844714610338578063ca67748114610340578063e8097b7e14610360578063f2fde38b1461037357600080fd5b80638da5cb5b146102ee57806395ccea67146102ff578063a0fd9a8c14610312578063bdaf46c01461032557600080fd5b8063549ec614116100d3578063549ec6141461016b578063565e614f14610174578063715018a61461025f578063859a62d01461026757600080fd5b806308dbbb03146100fa5780631411ed651461011757806351ed6a301461012c575b600080fd5b610104620f424081565b6040519081526020015b60405180910390f35b61012a610125366004610f2e565b610386565b005b6101537f000000000000000000000000000000000000000000000000000000000000000081565b6040516001600160a01b03909116815260200161010e565b61010460045481565b610210610182366004610f2e565b6040805160a08101825260008082526020820181905291810182905260608101829052608081019190915250600090815260026020818152604092839020835160a08101855281546001600160a01b0390811682526001830154169281019290925291820154928101929092526003015460ff80821615156060840152610100909104161515608082015290565b60405161010e919081516001600160a01b039081168252602080840151909116908201526040808301519082015260608083015115159082015260809182015115159181019190915260a00190565b61012a6104ed565b6102b7610275366004610f2e565b600260208190526000918252604090912080546001820154928201546003909201546001600160a01b0391821693909116919060ff8082169161010090041685565b604080516001600160a01b03968716815295909416602086015292840191909152151560608301521515608082015260a00161010e565b6000546001600160a01b0316610153565b61012a61030d366004610f63565b610501565b61012a610320366004610f8d565b6105a0565b61012a610333366004610f2e565b610856565b610104610b3f565b61010461034e366004610fb9565b60036020526000908152604090205481565b61012a61036e366004610f2e565b610b55565b61012a610381366004610fb9565b610e4c565b620f42408110156103cf5760405162461bcd60e51b815260206004820152600e60248201526d416d6f756e7420746f6f206c6f7760901b60448201526064015b60405180910390fd5b60405163095ea7b360e01b8152306004820152602481018290527f00000000000000000000000000000000000000000000000000000000000000006001600160a01b03169063095ea7b3906044016020604051808303816000875af115801561043c573d6000803e3d6000fd5b505050506040513d601f19601f820116820180604052508101906104609190610fdb565b61049e5760405162461bcd60e51b815260206004820152600f60248201526e105c1c1c9bdd985b0819985a5b1959608a1b60448201526064016103c6565b3360008181526003602052604090819020839055517f92bb139d32a500a24971eca3a43636fdf4608e854b533d1d27e468ba90f08660906104e29084815260200190565b60405180910390a250565b6104f5610e87565b6104ff6000610eb4565b565b610509610e87565b816001600160a01b031663a9059cbb61052a6000546001600160a01b031690565b6040516001600160e01b031960e084901b1681526001600160a01b039091166004820152602481018490526044016020604051808303816000875af1158015610577573d6000803e3d6000fd5b505050506040513d601f19601f8201168201806040525081019061059b9190610fdb565b505050565b6105a8610e87565b6105b0610f04565b6000828152600260205260409020600381015460ff166106045760405162461bcd60e51b815260206004820152600f60248201526e4475656c206e6f742061637469766560881b60448201526064016103c6565b60018101546001600160a01b03166106505760405162461bcd60e51b815260206004820152600f60248201526e111d595b081b9bdd081a9bda5b9959608a1b60448201526064016103c6565b6003810154610100900460ff16156106a35760405162461bcd60e51b8152602060048201526016602482015275111d595b08185b1c9958591e4818dbdb5c1b195d195960521b60448201526064016103c6565b80546001600160a01b03838116911614806106cd575060018101546001600160a01b038381169116145b61070a5760405162461bcd60e51b815260206004820152600e60248201526d24b73b30b634b2103bb4b73732b960911b60448201526064016103c6565b60038101805461ffff191661010017905560028082015460009161072e9190611013565b60405163a9059cbb60e01b81526001600160a01b0385811660048301526024820183905291925082917f0000000000000000000000000000000000000000000000000000000000000000169063a9059cbb906044016020604051808303816000875af11580156107a2573d6000803e3d6000fd5b505050506040513d601f19601f820116820180604052508101906107c69190610fdb565b6108025760405162461bcd60e51b815260206004820152600d60248201526c14185e5bdd5d0819985a5b1959609a1b60448201526064016103c6565b836001600160a01b0316857ff6da082615101369cd3719304cfc144daf3dd80a082f20ee252c887eca959c1f8360405161083e91815260200190565b60405180910390a350505061085260018055565b5050565b61085e610f04565b620f42408110156108a15760405162461bcd60e51b815260206004820152600d60248201526c5374616b6520746f6f206c6f7760981b60448201526064016103c6565b6040516370a0823160e01b815233600482015281907f00000000000000000000000000000000000000000000000000000000000000006001600160a01b0316906370a0823190602401602060405180830381865afa158015610907573d6000803e3d6000fd5b505050506040513d601f19601f8201168201806040525081019061092b9190611030565b10156109705760405162461bcd60e51b8152602060048201526014602482015273496e73756666696369656e742062616c616e636560601b60448201526064016103c6565b600480546000918261098183611049565b909155506040805160a0810182523380825260006020808401828152848601898152600160608701818152608088018681528a875260029586905295899020975188546001600160a01b039182166001600160a01b0319918216178a559451928901805493821693909516929092179093559051928601929092555160039094018054925115156101000261ff00199515159590951661ffff199093169290921793909317905591516323b872dd60e01b81526004810192909252306024830152604482018590529192507f0000000000000000000000000000000000000000000000000000000000000000909116906323b872dd906064016020604051808303816000875af1158015610a99573d6000803e3d6000fd5b505050506040513d601f19601f82011682018060405250810190610abd9190610fdb565b610afb5760405162461bcd60e51b815260206004820152600f60248201526e151c985b9cd9995c8819985a5b1959608a1b60448201526064016103c6565b604051828152339082907fd2c008cab3e2faa4367c93db99aca3cd062f88e9459e87d88b19ff8663d3d9ef9060200160405180910390a350610b3c60018055565b50565b60006001600454610b509190611062565b905090565b610b5d610f04565b6000818152600260205260409020600381015460ff16610bb15760405162461bcd60e51b815260206004820152600f60248201526e4475656c206e6f742061637469766560881b60448201526064016103c6565b60018101546001600160a01b031615610c025760405162461bcd60e51b8152602060048201526013602482015272111d595b08185b1c9958591e481a9bda5b9959606a1b60448201526064016103c6565b80546001600160a01b03163303610c525760405162461bcd60e51b815260206004820152601460248201527310d85b9b9bdd081a9bda5b881bdddb88191d595b60621b60448201526064016103c6565b60028101546040516370a0823160e01b81523360048201527f00000000000000000000000000000000000000000000000000000000000000006001600160a01b0316906370a0823190602401602060405180830381865afa158015610cbb573d6000803e3d6000fd5b505050506040513d601f19601f82011682018060405250810190610cdf9190611030565b1015610d245760405162461bcd60e51b8152602060048201526014602482015273496e73756666696369656e742062616c616e636560601b60448201526064016103c6565b6001810180546001600160a01b0319163390811790915560028201546040516323b872dd60e01b8152600481019290925230602483015260448201527f00000000000000000000000000000000000000000000000000000000000000006001600160a01b0316906323b872dd906064016020604051808303816000875af1158015610db3573d6000803e3d6000fd5b505050506040513d601f19601f82011682018060405250810190610dd79190610fdb565b610e155760405162461bcd60e51b815260206004820152600f60248201526e151c985b9cd9995c8819985a5b1959608a1b60448201526064016103c6565b604051339083907f2be0d3826f37a8de3c1b301652c7dab4429fc3dfe5685e6ce0947666cb32401d90600090a350610b3c60018055565b610e54610e87565b6001600160a01b038116610e7e57604051631e4fbdf760e01b8152600060048201526024016103c6565b610b3c81610eb4565b6000546001600160a01b031633146104ff5760405163118cdaa760e01b81523360048201526024016103c6565b600080546001600160a01b038381166001600160a01b0319831681178455604051919092169283917f8be0079c531659141344cd1fd0a4f28419497f9722a3daafe3b4186f6b6457e09190a35050565b600260015403610f2757604051633ee5aeb560e01b815260040160405180910390fd5b6002600155565b600060208284031215610f4057600080fd5b5035919050565b80356001600160a01b0381168114610f5e57600080fd5b919050565b60008060408385031215610f7657600080fd5b610f7f83610f47565b946020939093013593505050565b60008060408385031215610fa057600080fd5b82359150610fb060208401610f47565b90509250929050565b600060208284031215610fcb57600080fd5b610fd482610f47565b9392505050565b600060208284031215610fed57600080fd5b81518015158114610fd457600080fd5b634e487b7160e01b600052601160045260246000fd5b808202811582820484141761102a5761102a610ffd565b92915050565b60006020828403121561104257600080fd5b5051919050565b60006001820161105b5761105b610ffd565b5060010190565b8181038181111561102a5761102a610ffd56fea26469706673582212208cbc9e8cfbec10a606d31f29e255c60827d2e7d511f6163cb008824691f3a09a64736f6c63430008140033",
  "linkReferences": {},
  "deployedLinkReferences": {}
}